:020000040800F2
:1000000000500020612700083D1F0008431F000822
:10001000491F00084F1F0008551F0008000000007E
:100020000000000000000000000000005B1F00084E
:10003000671F000800000000731F00087F1F0008F2
:10004000A9270008A9270008A9270008A927000850
:10005000A9270008A9270008A9270008A927000840
:10006000A9270008A9270008A9270008A927000830
:10007000A9270008A9270008A9270008A927000820
:10008000A9270008A9270008A9270008A927000810
:10009000A9270008A9270008A9270008A927000800
:1000A000A9270008A9270008A9270008A9270008F0
:1000B000A9270008A9270008A9270008A9270008E0
:1000C000A9270008A9270008A9270008A9270008D0
:1000D000A92700088D1F0008A9270008A9270008E4
:1000E000A9270008A9270008A92700080000000088
:1000F0000000000000000000000000000000000000
:0C01000000000000000000005FF808F1A3
:1001100010B5054C237833B9044B13B10448AFF341
:1001200000800123237010BD0801002000000000A2
:100130000C78000808B5034B1BB103490348AFF323
:10014000008008BD000000000C0100200C780008B1
:1001500081F0004102E000BF83F0004330B54FEA78
:1001600041044FEA430594EA050F08BF90EA020FE5
:100170001FBF54EA000C55EA020C7FEA645C7FEA78
:10018000655C00F0E2804FEA5454D4EB5555B8BF9B
:100190006D420CDD2C4480EA020281EA030382EA0C
:1001A000000083EA010180EA020281EA0303362D9E
:1001B00088BF30BD11F0004F4FEA01314FF4801C71
:1001C0004CEA113102D0404261EB410113F0004F83
:1001D0004FEA03334CEA133302D0524263EB43033A
:1001E00094EA050F00F0A780A4F10104D5F1200ED8
:1001F0000DDB02FA0EFC22FA05F2801841F1000133
:1002000003FA0EF2801843FA05F359410EE0A5F106
:1002100020050EF1200E012A03FA0EFC28BF4CF037
:10022000020C43FA05F3C01851EBE37101F00045ED
:1002300007D54FF0000EDCF1000C7EEB00006EEBFA
:100240000101B1F5801F1BD3B1F5001F0CD3490884
:100250005FEA30004FEA3C0C04F101044FEA4452DB
:1002600012F5800F80F09A80BCF1004F08BF5FEA62
:10027000500C50F1000041EB045141EA050130BD42
:100280005FEA4C0C404141EB0101013C28BFB1F554
:10029000801FE9D291F0000F04BF01460020B1FA9F
:1002A00081F308BF2033A3F10B03B3F120020CDA72
:1002B0000C3208DD02F1140CC2F10C0201FA0CF050
:1002C00021FA02F10CE002F11402D8BFC2F1200CB5
:1002D00001FA02F120FA0CFCDCBF41EA0C0190406B
:1002E000E41AA2BF01EB0451294330BD6FEA0404B4
:1002F0001F3C1CDA0C340EDC04F11404C4F120029F
:1003000020FA04F001FA02F340EA030021FA04F3B0
:1003100045EA030130BDC4F10C04C4F1200220FA07
:1003200002F001FA04F340EA0300294630BD21FA45
:1003300004F0294630BD94F0000F83F4801306BF0B
:1003400081F480110134013D4EE77FEA645C18BFFF
:100350007FEA655C29D094EA050F08BF90EA020F96
:1003600005D054EA000C04BF1946104630BD91EA8E
:10037000030F1EBF0021002030BD5FEA545C05D191
:100380004000494128BF41F0004130BD14F58004D0
:100390003CBF01F5801130BD01F0004545F0FE4144
:1003A00041F470014FF0000030BD7FEA645C1ABF79
:1003B000194610467FEA655C1CBF0B46024650EAB0
:1003C000013406BF52EA033591EA030F41F40021DC
:1003D00030BD00BF90F0000F04BF0021704730B562
:1003E0004FF4806404F132044FF000054FF0000137
:1003F00050E700BF90F0000F04BF0021704730B5F8
:100400004FF4806404F1320410F0004548BF4042CC
:100410004FF000013EE700BF42004FEAE2014FEA21
:1004200031014FEA02701FBF12F07F4393F07F4FFC
:1004300081F06051704732F07F4208BF704793F0FF
:100440007F4F04BF41F40021704730B54FF4607412
:1004500001F0004521F000411CE700BF50EA010215
:1004600008BF704730B54FF000050AE050EA0102BE
:1004700008BF704730B511F0004502D5404261EB2E
:1004800041014FF4806404F132045FEA915C3FF46F
:10049000D8AE4FF003025FEADC0C18BF03325FEA0C
:1004A000DC0C18BF033202EBDC02C2F1200300FABD
:1004B00003FC20FA02F001FA03FE40EA0E0021FAE2
:1004C00002F11444BDE600BF70B54FF0FF0C4CF4D0
:1004D000E06C1CEA11541DBF1CEA135594EA0C0F82
:1004E00095EA0C0F00F0DEF82C4481EA030621EABD
:1004F0004C5123EA4C5350EA013518BF52EA0335F8
:1005000041F4801143F4801338D0A0FB02CE4FF0A9
:100510000005E1FB02E506F00042E0FB03E54FF0D9
:100520000006E1FB03569CF0000F18BF4EF0010ED1
:10053000A4F1FF04B6F5007F64F5407404D25FEACD
:100540004E0E6D4146EB060642EAC62141EA555180
:100550004FEAC52040EA5E504FEACE2EB4F1FD0CC2
:1005600088BFBCF5E06F1ED8BEF1004F08BF5FEA40
:10057000500E50F1000041EB045170BD06F00046F2
:1005800046EA010140EA020081EA0301B4EB5C049F
:10059000C2BFD4EB0C0541EA045170BD41F4801197
:1005A0004FF0000E013C00F3AB8014F1360FDEBFBC
:1005B000002001F0004170BDC4F10004203C35DA98
:1005C0000C341BDC04F11404C4F1200500FA05F31B
:1005D00020FA04F001FA05F240EA020001F00042BC
:1005E00021F0004110EBD37021FA04F642EB060132
:1005F0005EEA430E08BF20EAD37070BDC4F10C045C
:10060000C4F1200500FA04F320FA05F001FA04F21F
:1006100040EA020001F0004110EBD37041F100010B
:100620005EEA430E08BF20EAD37070BDC4F1200516
:1006300000FA05F24EEA020E20FA04F301FA05F27E
:1006400043EA020321FA04F001F0004121FA04F226
:1006500020EA020000EBD3705EEA430E08BF20EAF6
:10066000D37070BD94F0000F0FD101F00046400030
:1006700041EB010111F4801F08BF013CF7D041EAB2
:10068000060195F0000F18BF704703F000465200B6
:1006900043EB030313F4801F08BF013DF7D043EA87
:1006A0000603704794EA0C0F0CEA135518BF95EA3D
:1006B0000C0F0CD050EA410618BF52EA4306D1D1C4
:1006C00081EA030101F000414FF0000070BD50EAE3
:1006D000410606BF1046194652EA430619D094EA6D
:1006E0000C0F02D150EA013613D195EA0C0F05D157
:1006F00052EA03361CBF104619460AD181EA0301AB
:1007000001F0004141F0FE4141F470014FF0000062
:1007100070BD41F0FE4141F4780170BD70B54FF0FD
:10072000FF0C4CF4E06C1CEA11541DBF1CEA13557D
:1007300094EA0C0F95EA0C0F00F0A7F8A4EB05045F
:1007400081EA030E52EA03354FEA013100F0888056
:100750004FEA03334FF0805545EA131343EA12631F
:100760004FEA022245EA111545EA10654FEA0026D4
:100770000EF000419D4208BF964244F1FD0404F58D
:10078000407402D25B084FEA3202B61A65EB0305E9
:100790005B084FEA32024FF480104FF4002CB6EBA6
:1007A000020E75EB030E22BFB61A754640EA0C0026
:1007B0005B084FEA3202B6EB020E75EB030E22BF66
:1007C000B61A754640EA5C005B084FEA3202B6EBA7
:1007D000020E75EB030E22BFB61A754640EA9C0066
:1007E0005B084FEA3202B6EB020E75EB030E22BF36
:1007F000B61A754640EADC0055EA060E18D04FEAF4
:10080000051545EA16754FEA06164FEAC30343EA93
:1008100052734FEAC2025FEA1C1CC0D111F4801F60
:100820000BD141EA00014FF000004FF0004CB6E759
:1008300011F4801F04BF01430020B4F1FD0C88BFF8
:10084000BCF5E06F3FF6AFAEB5EB030C04BFB6EB03
:10085000020C5FEA500C50F1000041EB045170BDF6
:100860000EF0004E4EEA113114EB5C04C2BFD4EB23
:100870000C0541EA045170BD41F480114FF0000EA7
:10088000013C90E645EA060E8DE60CEA135594EA23
:100890000C0F08BF95EA0C0F3FF43BAF94EA0C0F26
:1008A0000AD150EA01347FF434AF95EA0C0F7FF49B
:1008B00025AF104619462CE795EA0C0F06D152EAEF
:1008C00003353FF4FDAE1046194622E750EA4106D3
:1008D00018BF52EA43067FF4C5AE50EA41047FF4E4
:1008E0000DAF52EA43057FF4EBAE12E74FF0FF3C49
:1008F00006E000BF4FF0010C02E000BF4FF0010C1A
:100900004DF804CD4FEA410C7FEA6C5C4FEA430C92
:1009100018BF7FEA6C5C1BD001B050EA410C0CBFE1
:1009200052EA430C91EA030F02BF90EA020F002043
:10093000704710F1000F91EA030F58BF994208BFAA
:1009400090422CBFD8176FEAE37040F00100704767
:100950004FEA410C7FEA6C5C02D150EA013C07D1BE
:100960004FEA430C7FEA6C5CD6D152EA033CD3D009
:100970005DF8040B704700BF8446104662468C4603
:100980001946634600E000BF01B5FFF7B7FF002836
:1009900048BF10F1000F01BD4DF808EDFFF7F4FF5F
:1009A0000CBF012000205DF808FB00BF4DF808EDEA
:1009B000FFF7EAFF34BF012000205DF808FB00BF0D
:1009C0004DF808EDFFF7E0FF94BF012000205DF82F
:1009D00008FB00BF4DF808EDFFF7CEFF94BF0120E4
:1009E00000205DF808FB00BF4DF808EDFFF7C4FFDD
:1009F00034BF012000205DF808FB00BF4FEA410C26
:100A00007FEA6C5C02D150EA013C0AD14FEA430C08
:100A10007FEA6C5C02D152EA033C02D14FF0000045
:100A200070474FF0010070474FEA410212F5001283
:100A300015D211D56FF47873B3EB625212D94FEA25
:100A4000C12343F0004343EA505311F0004F23FA0F
:100A500002F018BF404270474FF00000704750EA64
:100A6000013005D111F0004008BF6FF00040704721
:100A70004FF00000704700BF80F0004002E000BF70
:100A800081F0004142001FBF5FEA410392EA030F79
:100A90007FEA226C7FEA236C6AD04FEA1262D2EBC3
:100AA0001363C1BFD218414048404140B8BF5B42C8
:100AB000192B88BF704710F0004F40F4000020F061
:100AC0007F4018BF404211F0004F41F4000121F077
:100AD0007F4118BF494292EA030F3FD0A2F10102C1
:100AE00041FA03FC10EB0C00C3F1200301FA03F1FF
:100AF00000F0004302D5494260EB4000B0F5000F22
:100B000013D3B0F1807F06D340084FEA310102F1E0
:100B10000102FE2A51D2B1F1004F40EBC25008BF92
:100B200020F0010040EA03007047490040EB00005C
:100B3000013A28BFB0F5000FEDD2B0FA80FCACF15D
:100B4000080CB2EB0C0200FA0CF0AABF00EBC2508A
:100B500052421843BCBFD0401843704792F0000F78
:100B600081F4000106BF80F400000132013BB5E7CB
:100B70004FEA41037FEA226C18BF7FEA236C21D041
:100B800092EA030F04D092F0000F08BF08467047A6
:100B900090EA010F1CBF0020704712F07F4F04D174
:100BA000400028BF40F00040704712F100723CBF87
:100BB00000F50000704700F0004343F0FE4040F4B1
:100BC000000070477FEA226216BF08467FEA23636F
:100BD0000146420206BF5FEA412390EA010F40F45A
:100BE000800070474FF0000304E000BF10F00043A6
:100BF00048BF40425FEA000C08BF704743F096438D
:100C000001464FF000001CE050EA010208BF7047A7
:100C10004FF000030AE000BF50EA010208BF70472E
:100C200011F0004302D5404261EB41015FEA010C43
:100C300002BF84460146002043F0B64308BFA3F13B
:100C40008053A3F50003BCFA8CF2083AA3EBC2531D
:100C500010DB01FA02FC634400FA02FCC2F120023C
:100C6000BCF1004F20FA02F243EB020008BF20F073
:100C70000100704702F1200201FA02FCC2F12002D9
:100C800050EA4C0021FA02F243EB020008BF20EACE
:100C9000DC7070474FF0FF0C1CEAD0521EBF1CEAFC
:100CA000D15392EA0C0F93EA0C0F6FD01A4480EAEA
:100CB000010C400218BF5FEA41211ED04FF00063D3
:100CC00043EA501043EA5111A0FB01310CF00040FF
:100CD000B1F5000F3EBF490041EAD3715B0040EA25
:100CE000010062F17F02FD2A1DD8B3F1004F40EBF5
:100CF000C25008BF20F00100704790F0000F0CF0C8
:100D0000004C08BF49024CEA502040EA51207F3A8B
:100D1000C2BFD2F1FF0340EAC250704740F4000066
:100D20004FF00003013A5DDC12F1190FDCBF00F057
:100D300000407047C2F10002410021FA02F1C2F105
:100D4000200200FA02FC5FEA310040F1000053EAA1
:100D50004C0308BF20EADC70704792F0000F00F0EF
:100D6000004C02BF400010F4000F013AF9D040EAF5
:100D70000C0093F0000F01F0004C02BF490011F489
:100D8000000F013BF9D041EA0C018FE70CEAD15387
:100D900092EA0C0F18BF93EA0C0F0AD030F0004C07
:100DA00018BF31F0004CD8D180EA010000F00040BB
:100DB000704790F0000F17BF90F0004F084691F079
:100DC000000F91F0004F14D092EA0C0F01D14202B3
:100DD0000FD193EA0C0F03D14B0218BF084608D17C
:100DE00080EA010000F0004040F0FE4040F40000C6
:100DF000704740F0FE4040F4400070474FF0FF0C59
:100E00001CEAD0521EBF1CEAD15392EA0C0F93EA9F
:100E10000C0F69D0A2EB030280EA010C49024FEAF1
:100E2000402037D04FF0805343EA111143EA1013AA
:100E30000CF000408B4238BF5B0042F17D024FF462
:100E4000000C8B4224BF5B1A40EA0C00B3EB510F3D
:100E500024BFA3EB510340EA5C00B3EB910F24BF26
:100E6000A3EB910340EA9C00B3EBD10F24BFA3EBAB
:100E7000D10340EADC001B0118BF5FEA1C1CE0D173
:100E8000FD2A3FF650AF8B4240EBC25008BF20F026
:100E9000010070470CF0004C4CEA50207F32C2BF7A
:100EA000D2F1FF0340EAC250704740F400004FF017
:100EB0000003013A37E792F0000F00F0004C02BF48
:100EC000400010F4000F013AF9D040EA0C0093F012
:100ED000000F01F0004C02BF490011F4000F013B6C
:100EE000F9D041EA0C0195E70CEAD15392EA0C0FD4
:100EF00008D142027FF47DAF93EA0C0F7FF470AF0C
:100F0000084676E793EA0C0F04D14B023FF44CAF4E
:100F100008466EE730F0004C18BF31F0004CCAD1E3
:100F200030F000427FF45CAF31F000437FF43CAF1F
:100F30005FE700BF4FF0FF3C06E000BF4FF0010C41
:100F400002E000BF4FF0010C4DF804CD4FEA400223
:100F50004FEA41037FEA226C18BF7FEA236C11D06D
:100F600001B052EA530C18BF90EA010F58BFB2EB20
:100F7000030088BFC81738BF6FEAE17018BF40F0A0
:100F8000010070477FEA226C02D15FEA402C05D154
:100F90007FEA236CE4D15FEA412CE1D05DF8040BD9
:100FA000704700BF844608466146FFE70FB5FFF76C
:100FB000C9FF002848BF10F1000F0FBD4DF808ED24
:100FC000FFF7F4FF0CBF012000205DF808FB00BF15
:100FD0004DF808EDFFF7EAFF34BF012000205DF86F
:100FE00008FB00BF4DF808EDFFF7E0FF94BF0120BC
:100FF00000205DF808FB00BF4DF808EDFFF7D2FFB9
:1010000094BF012000205DF808FB00BF4DF808EDFB
:10101000FFF7C8FF34BF012000205DF808FB00BFC8
:1010200042000ED2B2F1FE4F0BD34FF09E03B3EB52
:10103000126209D44FEA002343F0004323FA02F07E
:1010400070474FF00000704712F1610F01D142026A
:1010500002D14FF0FF3070474FF00000704700BFE3
:1010600080B582B000AF78607B681B680F4A9342FE
:1010700017D10F4B1B784E2B05D1012202210D48B1
:1010800002F094F908E00A4B1B78592B04D1002296
:101090000221084802F08AF914220549064804F0A2
:1010A00020FE00BF0837BD4680BD00BF00380140AC
:1010B00024010020000801404003002080B588B0D2
:1010C00004AF7860642302930123019307F10F03B7
:1010D000009301237522D021786802F0D7FBFB7BB7
:1010E000682B3DD10023BB7364230293012301933A
:1010F00007F10E03009301236B22D021786802F0E0
:10110000CBFA0723BB73642302930123019307F1F6
:101110000E03009301231922D021786802F0BCFA53
:101120000023BB73642302930123019307F10E0391
:10113000009301231C22D021786802F0ADFA00232D
:10114000BB73642302930123019307F10E03009301
:1011500001231B22D021786802F09EFA002300E0D0
:10116000012318461037BD4680BD00000000000076
:101170002DE9B04F94B004AF7860396064230293D6
:101180000E23019307F10803009301233B22D02192
:10119000786802F07BFB3B7A1B021AB27B7A1BB2A7
:1011A00013431AB23B681A80BB7A1B021AB2FB7A4D
:1011B0001BB213431AB23B685A803B7B1B021AB224
:1011C0007B7B1BB213431AB23B689A80BB7B1B022A
:1011D0001AB2FB7B1BB21343FB863B7C1B021AB289
:1011E0007B7C1BB213431AB23B681A84BB7C1B0284
:1011F0001AB2FB7C1BB213431AB23B685A843B7D84
:101200001B021AB27B7D1BB213431AB23B689A844D
:101210003B68B3F900301846FFF7ECF84FF00002D6
:10122000954BFFF77BFA02460B463968C1E902236A
:101230003B68B3F902301846FFF7DCF84FF00002C4
:101240008D4BFFF76BFA02460B463968C1E9042360
:101250003B68B3F904301846FFF7CCF880A3D3E914
:101260000023FFF75BFA02460B463968C1E9062303
:10127000B7F936301846FFF7B9FC03467F491846E0
:10128000FFF7BCFD03467E491846FFF7FBFB03460C
:101290001A463B681A643B68B3F920301846FFF7DA
:1012A000A9F871A3D3E90023FFF738FA02460B46E9
:1012B0003968C1E90A233B68B3F922301846FFF7C1
:1012C00099F869A3D3E90023FFF728FA02460B46F1
:1012D0003968C1E90C233B68B3F924301846FFF79D
:1012E00089F861A3D3E90023FFF718FA02460B46F9
:1012F0003968C1E90E2301F0E7FC0246614B1B6827
:10130000D31A1846FFF766F84FF000025E4BFFF75E
:1013100005FA02460B46C7E90A2301F0D5FC03464D
:10132000584A13603B68B3F900301A463B68B3F97A
:10133000003003FB02F23B68B3F9043019463B6806
:10134000B3F9043001FB03F313441846FFF752F8D6
:1013500002460B461046194605F0A9FBC7E90801ED
:101360004FF000024FF00003D7E90801FFF714FB2C
:101370000346002B19D13B68B3F902301846FFF73A
:1013800039F8D7E90823FFF7C9F902460B4610469A
:10139000194605F0FDF936A3D3E90023FFF794F8C9
:1013A00002460B46C7E90E2305E04FF000024FF05E
:1013B0000003C7E90E233B68B3F900305B421846CF
:1013C000FFF718F882468B463B68B3F9043018469D
:1013D000FFF710F802460B465046594605F065FBEC
:1013E00023A3D3E90023FFF76FF802460B46C7E9B2
:1013F00006234FF00002254BD7E90601FFF7D6FA86
:101400000346002B0AD03B68D3E914014FF00002D9
:101410001F4BFFF7E9FA0346002B14D14FF00002EF
:101420001B4BD7E90601FFF7DFFA0346002B33D049
:101430003B68D3E914014FF00002144BFFF7B6FAF2
:101440000346002B28D01349D7E90623C1E9062318
:101450003968D7E90623C1E9142330E0AFF30080EF
:10146000000000000029CC40000000000060604047
:10147000F8C1631ADCA54C400000D0400000AA432C
:10148000B81E12423801002000408F40008056C034
:1014900000805640480000203B68D3E90C23D7E980
:1014A0000A01CDE90201CDE90023D7E906231C4852
:1014B00000F03CF802460B463968C1E914233B684A
:1014C000D3E91423904623F000494FF00002154B56
:1014D00040464946FFF788FA0346002B08D03B6890
:1014E000D3E90A23144683F000453B68C3E90A4563
:1014F0003B68D3E90A23D7E90A01CDE90201CDE926
:101500000023D7E90E23084800F010F802460B46E6
:101510003968C1E9122300BF4037BD46BDE8B08F2E
:10152000480000200080564000000020B0B592B076
:1015300000AFF860C7E90023FB68D3E90823D7E9C7
:101540001601FEF709FE02460B46C7E91023FB68A9
:10155000D3E90645D7E91023D7E91801FEF7B4FF10
:1015600002460B4620462946FEF7F8FD02460B468A
:10157000F968C1E90623FB68D3E90A45FB68D3E9AA
:101580001001D7E91823FEF79FFF02460B461046CD
:101590001946FB68D3E90C23FEF7DEFD02460B4635
:1015A00010461946FB68D3E90E23FEF7D5FD024627
:1015B0000B4610461946FB68D3E90023FEF7CEFD23
:1015C00002460B4610461946D7E91823FEF77CFF62
:1015D00002460B4620462946FEF7C0FD02460B4652
:1015E000F968C1E90A23FB68D3E90C45FB68D3E934
:1015F0001001D7E91823FEF767FF02460B46204685
:101600002946FEF7A9FD02460B46F968C1E90C23FD
:10161000FB68D3E90E45FB68D3E91001D7E918232D
:10162000FEF752FF02460B4620462946FEF794FD80
:1016300002460B46F968C1E90E23FB68D3E9104561
:10164000FB68D3E90201D7E91823FEF73DFF024604
:101650000B4620462946FEF781FD02460B46F968F7
:10166000C1E91023FB68D3E90A01FB68D3E904232D
:10167000FEF774FD02460B46C7E90E23FB68D3E96B
:101680000A01D7E90E23FFF749F802460B46C7E9DE
:101690000423FB68D3E90E01D7E90E23FFF73EF8D8
:1016A00002460B46C7E90623FB68D3E90623D7E9C0
:1016B0000001FEF751FD02460B46C7E90C23FB680B
:1016C000D3E90645D7E90401D7E90C23FEF7FCFE70
:1016D00002460B4620462946FEF740FD02460B46D1
:1016E000F968C1E90623FB68D3E90845D7E9060193
:1016F000D7E90C23FEF7E8FE02460B4620462946B2
:10170000FEF72CFD02460B46F968C1E90823FB6889
:10171000D3E90A23C7E90A23FB68D3E90C23C7E905
:101720000823FB68D3E90A45D7E90401D7E90A236E
:10173000FEF7CAFE02460B4620462946FEF70CFD80
:1017400002460B46F968C1E90A23FB68D3E90C4558
:10175000D7E90401D7E90823FEF7B6FE02460B4697
:1017600020462946FEF7F8FC02460B46F968C1E917
:101770000C23FB68D3E90E45D7E90601D7E90A2314
:10178000FEF7A2FE02460B4620462946FEF7E4FC81
:1017900002460B46F968C1E90E23FB68D3E9104500
:1017A000D7E90601D7E90823FEF78EFE02460B466D
:1017B00020462946FEF7D0FC02460B46F968C1E9EF
:1017C0001023FB68D3E90623104619464837BD4667
:1017D000B0BD000080B582B000AF786039607B6832
:1017E000012B10D13B684FF6FF7293420BD10423BB
:1017F00000220E490E4800F031F8042300220D4962
:101800000D4800F02BF87B68002B0AD13B684FF69F
:10181000FF72934205D1084800F06AF8044800F0CE
:1018200067F800BF0837BD4680BD00BF200200201A
:101830003C010020680200205801002080B500AF64
:101840004FF6FF710120FFF7C5FF80BD80B500AFE7
:101850004FF6FF710020FFF7BDFF80BD90B587B048
:1018600002AFF860B96011461A460B46FB8013467A
:10187000BB80FB681D4A1A61FB684FF000021A60CA
:10188000FB680022DA60FB6800225A61FB680122D3
:101890001A76142004F05EFF03461C46FB88009372
:1018A000BB6800220021204600F07AF8FB685C60EB
:1018B000142004F04FFF03461C46BB880093BB680E
:1018C00000220021204600F06BF8FB689C60FB685A
:1018D0005B68184600F07EF8FB689B68184600F0CD
:1018E00079F8FB6818461437BD4690BD6F12033A6D
:1018F00080B582B000AF78607B685B68002B03D056
:101900001421184604F024FF7B689B68002B03D049
:101910001421184604F01CFF7B6818460837BD46A2
:1019200080BD000090B583B000AF786039601A497F
:101930003868FFF76BFB0346002B29D1174938683D
:10194000FFF746FB0346002B22D14FF00001386819
:10195000FFF75CFB0346002B0BD07B685C683868A4
:10196000FFF75EFB0346DBB21946204600F048F85D
:101970000FE07B689C683B6883F000431846FFF7E4
:101980004FFB0346DBB21946204600F039F800E071
:1019900000BF0C37BD4690BD0000C8420000C8C261
:1019A00080B485B000AFF8607A603B600B467B8105
:1019B000FB687A891A80FB687A685A60FB683A6823
:1019C0009A60FB683A8B9A81FB6818461437BD46CB
:1019D00080BC704780B582B000AF78607B689B6840
:1019E000DA687B681A617B689A687B689B8919460C
:1019F000104603F077FA00BF0837BD4680BD0000EF
:101A000090B585B000AF78600B46FB70FB78642B17
:101A100049D8FB7840F24C4202FB03F3244AA2FB74
:101A200003235B0903F2B633FB60F868FFF7DAF8CB
:101A3000034620491846FFF7E1F903461C467B6838
:101A40001B691846FFF7CEF8034619462046FFF7F4
:101A500021F903461846FFF7E3FA0346BB607B68AB
:101A60009B89002B05D17B689B681B68BA685A6309
:101A70001AE07B689B89042B05D17B689B681B68F7
:101A8000BA689A6310E07B689B89082B05D17B6854
:101A90009B681B68BA68DA6306E07B689B681B6812
:101AA000BA681A6400E000BF1437BD4690BD00BF9D
:101AB0001F85EB510000C84280B588B000AF07F128
:101AC000100300221A605A609A60DA601E4B9B690C
:101AD0001D4A43F0100393611B4B9B6903F01003F5
:101AE000FB60FB68184B9B69174A43F00403936142
:101AF000154B9B6903F00403BB60BB68124B9B69E9
:101B0000114A43F0080393610F4B9B6903F00803EC
:101B10007B607B6800224FF400510C4801F046FCCA
:101B20004FF400533B6101237B610023BB6102231F
:101B3000FB6107F110031946044801F0B3FA00BF36
:101B40002037BD4680BD00BF00100240001001409C
:101B500080B500AF124B134A1A60114B124A5A60FB
:101B60000F4B00229A600E4B0022DA600C4B4FF4B0
:101B700080421A610A4B00225A61094B00229A6185
:101B8000074B0022DA61064B00221A62044801F07A
:101B90003FFC0346002B01D000F098F900BF80BD48
:101BA0007401002000540040A086010080B500AF01
:101BB000124B134A1A60114B124A5A600F4B002203
:101BC0009A600E4B0022DA600C4B4FF480421A618F
:101BD0000A4B00225A61094B00229A61074B0022EE
:101BE000DA61064B00221A62044801F011FC034638
:101BF000002B01D000F06AF900BF80BDC8010020B1
:101C000000580040801A060080B58CB000AF7860A4
:101C100007F11C0300221A605A609A60DA607B6840
:101C20001B68324A934233D1314B9B69304A43F0AF
:101C3000080393612E4B9B6903F00803BB61BB69EA
:101C40004FF44073FB6112233B620323BB6207F135
:101C50001C031946274801F025FA274B5B68FB62F5
:101C6000FB6A43F0E063FB62FB6A43F00203FB6242
:101C7000214AFB6A53601E4BDB691D4A43F4001383
:101C8000D3611B4BDB6903F400137B617B6929E0A3
:101C90007B681B68194A934224D1154B9B69144AEF
:101CA00043F008039361124B9B6903F008033B6107
:101CB0003B694FF44063FB6112233B620323BB6229
:101CC00007F11C0319460B4801F0ECF9084BDB69DE
:101CD000074A43F48003D361054BDB6903F48003B7
:101CE000FB60FB6800BF3037BD4680BD005400403C
:101CF00000100240000C014000000140005800406C
:101D000080B5B2B000AF00F087FF00F061F8FFF7D8
:101D1000D3FEFFF71DFFFFF749FF00F09FF900F02A
:101D200049FA00F0C7FA00F05BFB00F08DFC00F010
:101D300075FD2148FFF7C2F907F1AC00042300222A
:101D40001E49FFF78BFD07F19000042300221C4978
:101D5000FFF784FD3B4658220021184605F0B8F8ED
:101D6000184B3B6400F07AF83B4619461248FFF7DF
:101D7000FFF9642000F0B2FFD7E90A2310461946A4
:101D8000FEF752FE024607F15C030F49184605F0C4
:101D9000D7F907F15C03184600F07CF807F1AC03B3
:101DA0000A491846FFF7BEFD07F190030749184698
:101DB000FFF7B8FDD6E700BF740100202002002025
:101DC000680200200000C84128780008000048C2CE
:101DD00080B590B000AF07F1180328220021184603
:101DE00005F076F83B1D00221A605A609A60DA60AE
:101DF0001A610223BB610123BB621023FB62002333
:101E00007B6307F11803184602F05CFB0346002BC6
:101E100014BF01230023DBB2002B01D000F056F8E1
:101E20000F237B600023BB600023FB6000233B612A
:101E300000237B613B1D0021184602F0C5FD0346CF
:101E4000002B14BF01230023DBB2002B01D000F0D4
:101E50003DF800BF4037BD4680BD000080B582B070
:101E600000AF00237B607B68032B0CDC4FF4005138
:101E7000074801F0B3FA4FF4FA7000F02FFF7B68C7
:101E800001337B60EFE700BF0837BD4680BD00BF70
:101E90000010014080B584B000AF78600023FB7370
:101EA000012000F025FDFB7B1946022000F06AFEB0
:101EB000054A002306CA786800F03EFE00F03AFDAD
:101EC00000BF1037BD4680BD9400002080B400AF35
:101ED00072B600BFFEE7000080B485B000AF154BBE
:101EE0009B69144A43F001039361124B9B6903F011
:101EF0000103BB60BB680F4BDB690E4A43F08053A4
:101F0000D3610C4BDB6903F080537B607B680A4B29
:101F10005B68FB60FB6823F0E063FB60FB6843F0F9
:101F20000073FB60044AFB68536000BF1437BD4672
:101F300080BC7047001002400000014080B400AF38
:101F4000FEE780B400AFFEE780B400AFFEE780B4E8
:101F500000AFFEE780B400AFFEE780B400AF00BF83
:101F6000BD4680BC704780B400AF00BFBD4680BC9A
:101F7000704780B400AF00BFBD4680BC704780B5DD
:101F800000AF00F08FFE00BF80BD000080B500AF45
:101F9000024803F0CBFE00BF80BD00BF400300201D
:101FA00080B400AF01231846BD4680BC704780B5A1
:101FB00082B000AF7860396004F028FF0346162233
:101FC0001A604FF0FF3318460837BD4680BD80B514
:101FD00082B000AF78604FF0FF317868FFF7E7FF1D
:101FE000FEE7000080B586B000AF7860144A154B5C
:101FF000D31A7B617B693B61134B1B68002B02D1B9
:10200000114B124A1A60104B1A687B6813443A69E4
:102010009A4207D204F0FAFE03460C221A604FF0EF
:10202000FF3309E0084B1B68FB60074B1A687B68AD
:102030001344054A1360FB6818461837BD4680BD37
:1020400000500020000400001C020020A80700200F
:1020500080B400AF00BFBD4680BC704780B596B06D
:1020600000AF07F1480300221A605A609A60DA60F4
:1020700007F1400300221A605A6007F1240300228E
:102080001A605A609A60DA601A615A619A613B1D5F
:1020900020220021184604F01BFF444B444A1A60DA
:1020A000424B00225A60414B00229A603F4B4FF452
:1020B0004872DA603D4B00221A613C4B00225A61A3
:1020C0003A4B00229A61394802F00CFE0346002B7D
:1020D00001D0FFF7FBFE4FF48053BB6407F14803C8
:1020E0001946324803F0BEF80346002B01D0FFF733
:1020F000EDFE2E4802F09DFE0346002B01D0FFF7B7
:10210000E5FE00233B6400237B6407F1400319468E
:10211000264803F0E7FC0346002B01D0FFF7D6FE6C
:1021200060237B620023BB620023FB6200233B63CE
:1021300000237B630023BB630023FB6307F12403BD
:1021400000221946194802F0CBFF0346002B01D0AC
:10215000FFF7BCFE07F1240304221946134802F0DE
:10216000BFFF0346002B01D0FFF7B0FE00237B60CA
:102170000023BB600023FB6000233B6100237B61E5
:102180004FF40053BB6100233B623B1D19460748D7
:1021900003F006FD0346002B01D0FFF797FE03482E
:1021A00000F000FA00BF5837BD4680BD2002002075
:1021B000002C014080B58EB000AF07F1280300224B
:1021C0001A605A609A60DA6007F1200300221A60F0
:1021D0005A603B1D00221A605A609A60DA601A61E8
:1021E0005A619A61324B4FF080421A60304B0022A4
:1021F0005A602F4B00229A602D4B4FF44872DA60E0
:102200002B4B00221A612A4B00229A61284802F0C7
:1022100069FD0346002B01D0FFF758FE4FF48053B1
:10222000BB6207F128031946214803F01BF8034657
:10223000002B01D0FFF74AFE1D4802F0FAFD0346CD
:10224000002B01D0FFF742FE00233B6200237B629C
:1022500007F120031946164803F044FC0346002BFF
:1022600001D0FFF733FE60237B600023BB600023B7
:10227000FB6000237B613B1D002219460C4802F0E5
:102280002FFF0346002B01D0FFF720FE3B1D042249
:102290001946074802F024FF0346002B01D0FFF740
:1022A00015FE034800F07EF900BF3837BD4680BDFB
:1022B0006802002080B592B000AF07F13803002219
:1022C0001A605A609A60DA6007F1240300221A60EB
:1022D0005A609A60DA601A6107F11C0300221A60E2
:1022E0005A603B4600221A605A609A60DA601A61AE
:1022F0005A619A61384B394A1A60374B00225A604A
:10230000354B00229A60344B4FF6FF72DA60324B45
:1023100000221A61304B00229A612F4802F0E2FC41
:102320000346002B01D0FFF7D1FD4FF48053BB6370
:1023300007F138031946284802F094FF0346002BA2
:1023400001D0FFF7C3FD244802F01BFD0346002B1C
:1023500001D0FFF7BBFD00237B621023BB6207F1B6
:10236000240319461C4803F044F80346002B01D00F
:10237000FFF7ACFD0023FB6100233B6207F11C0368
:102380001946154803F0AEFB0346002B01D0FFF7BA
:102390009DFD00233B6000237B600023BB60002386
:1023A0003B613B46002219460B4802F03DFE0346C6
:1023B000002B01D0FFF78AFD3B4604221946064850
:1023C00002F032FE0346002B01D0FFF77FFD00BF75
:1023D0004837BD4680BD00BFB00200200004004069
:1023E00080B592B000AF07F1380300221A605A603E
:1023F0009A60DA6007F1240300221A605A609A603A
:10240000DA601A6107F11C0300221A605A603B4629
:1024100000221A605A609A60DA601A615A619A6101
:10242000324B334A1A60314B00225A602F4B002244
:102430009A602E4B4FF6FF72DA602C4B00221A6125
:102440002A4B00229A61294802F04CFC0346002BDB
:1024500001D0FFF73BFD4FF48053BB6307F1380316
:102460001946224802F0FEFE0346002B01D0FFF77A
:102470002DFD1E4802F085FC0346002B01D0FFF71E
:1024800025FD00237B622023BB6207F1240319464C
:10249000164802F0AEFF0346002B01D0FFF716FDF1
:1024A0000023FB6100233B6207F11C0319460F4820
:1024B00003F018FB0346002B01D0FFF707FD0023B4
:1024C0003B6000237B600023BB6000233B613B46F5
:1024D00000221946054802F0A7FD0346002B01D053
:1024E000FFF7F4FC00BF4837BD4680BDF80200206E
:1024F0000008004080B487B000AF78607B681B683C
:10250000244A93420CD1244B9B69234A43F4006331
:102510009361214B9B6903F400637B617B6934E029
:102520007B681B68B3F1804F0CD11B4BDB691A4AE7
:1025300043F00103D361184BDB6903F001033B61F6
:102540003B6922E07B681B68144A93420CD1124B12
:10255000DB69114A43F00203D3610F4BDB6903F0DF
:102560000203FB60FB6810E07B681B680C4A934227
:102570000BD1094BDB69084A43F00403D361064BD6
:10258000DB6903F00403BB60BB6800BF1C37BD46BA
:1025900080BC7047002C0140001002400004004045
:1025A0000008004080B588B000AF786007F11003E4
:1025B00000221A605A609A60DA607B681B681F4AC2
:1025C000934219D11E4B9B691D4A43F0040393614A
:1025D0001B4B9B6903F00403FB60FB684FF44073E3
:1025E0003B6102237B610223FB6107F11003194663
:1025F000144800F057FD1CE07B681B68B3F1804F66
:1026000017D10F4B9B690E4A43F0040393610C4BA7
:102610009B6903F00403BB60BB6803233B61022397
:102620007B610223FB6107F110031946054800F0A6
:1026300039FD00BF2037BD4680BD00BF002C0140E2
:10264000001002400008014080B500AF114B124A53
:102650001A60104B4FF416525A600E4B00229A60CB
:102660000C4B0022DA600B4B00221A61094B0C2242
:102670005A61084B00229A61064B0022DA61054834
:1026800003F0DFFA0346002B01D0FFF71FFC00BF69
:1026900080BD00BF400300200038014080B58AB0F3
:1026A00000AF786007F1140300221A605A609A6044
:1026B000DA607B681B68264A934245D1254B9B69AB
:1026C000244A43F480439361224B9B6903F4804383
:1026D0003B613B691F4B9B691E4A43F008039361B2
:1026E0001C4B9B6903F00803FB60FB6840237B6184
:1026F0000223BB6103233B6207F11403194616480A
:1027000000F0D0FC80237B610023BB610023FB61D0
:1027100007F114031946104800F0C4FC0F4B5B6826
:102720007B627B6A43F0E0637B627B6A43F0040375
:102730007B620A4A7B6A536000220021252000F058
:10274000C8FB252000F0E1FB00BF2837BD4680BD57
:102750000038014000100240000C01400000014020
:10276000FFF776FC0B480C490C4A002302E0D458D2
:10277000C4500433C4188C42F9D3094A094C0023CD
:1027800001E013600432A242FBD304F045FBFFF7E3
:10279000B7FA70470000002008010020848000087C
:1027A00008010020A8070020FEE780B400AF00BFAA
:1027B000BD4680BC7047000080B586B004AF0346BC
:1027C000FB714FF0FF33029301230193FB1D009334
:1027D000012300227821034800F05EFF00BF083784
:1027E000BD4680BDC801002080B586B004AF7860CA
:1027F00039603B689BB24FF0FF32029201937B68D5
:102800000093012340227821034800F045FF00BFD8
:102810000837BD4680BD00BFC801002080B500AFAD
:10282000FFF7C3FF642000F059FA002000F0D6F94A
:102830002020FFF7C1FF0020FFF7BEFFB020FFF709
:10284000BBFFC820FFF7B8FF0020FFF7B5FF10203F
:10285000FFF7B2FF4020FFF7AFFFFF2000F0AAF91B
:10286000A120FFF7A9FFA620FFF7A6FFA820FFF7EA
:10287000A3FF3F20FFF7A0FFA420FFF79DFFD32079
:10288000FFF79AFF0020FFF797FFD520FFF794FF8F
:10289000F020FFF791FFD920FFF78EFF2220FFF7EE
:1028A0008BFFDA20FFF788FF1220FFF785FFDB2080
:1028B000FFF782FF2020FFF77FFF8D20FFF77CFFCF
:1028C0001420FFF779FF012000F088F9002000F0C4
:1028D0000FF800F02FF8054B00221A80034B00225E
:1028E0005A80024B01221A7100BF80BD8807002068
:1028F00080B485B000AF0346FB710023FB600DE0A0
:10290000FB79002B01D1002100E0FF21084AFB6880
:1029100013440A461A70FB680133FB60FB68B3F589
:10292000806FEDD300BF00BF1437BD4680BC704739
:102930008803002080B582B000AF0023FB7116E051
:10294000FB79503BDBB21846FFF736FF0020FFF75C
:1029500033FF1020FFF730FFFB79DB01084A1344F7
:1029600080211846FFF740FFFB790133FB71FB79AB
:10297000072BE5D900BF00BF0837BD4680BD00BFAB
:102980008803002080B483B000AF0346FB710B4680
:10299000BB7113467B7197F90730002B3DDBBB7988
:1029A0003F2B3AD87B79012B1AD1FA79BB79DB0816
:1029B000D8B20346DB0113441A4AD35C5AB2BB793E
:1029C00003F00703012101FA03F35BB2134359B289
:1029D000FA790346DB011344C9B2124AD1541DE00F
:1029E000FA79BB79DB08D8B20346DB0113440D4A00
:1029F000D35C5AB2BB7903F00703012101FA03F358
:102A00005BB2DB435BB2134059B2FA790346DB0198
:102A10001344C9B2034AD15400E000BF0C37BD468D
:102A200080BC70478803002090B589B000AF044691
:102A3000381D80E806001A462346FB731346BB7315
:102A4000FB7B1F2B02D9FB7B7E2B01D900236DE082
:102A5000384B1B881A463B791344802B06DC354BD8
:102A60005B881A467B791344402B01DD00235DE02F
:102A70000023FB614CE0BA68FB7B203B797901FBCA
:102A800003F31946FB690B445B0013441B887B610D
:102A90000023BB6134E07A69BB6902FA03F303F4F3
:102AA0000043002B12D0234B1B88DAB2BB69DBB288
:102AB0001344D8B21F4B5B88DAB2FB69DBB2134414
:102AC000DBB2BA7B1946FFF75DFF16E0194B1B8896
:102AD000DAB2BB69DBB21344D8B2164B5B88DAB208
:102AE000FB69DBB21344D9B2BB7B002B0CBF0123C3
:102AF0000023DBB21A46FFF745FFBB690133BB6118
:102B00003B791A46BB699342C5D3FB690133FB612C
:102B10007B791A46FB699342ADD3064B1A883B7901
:102B20009BB213449AB2034B1A80FB7B184624379E
:102B3000BD4690BD8807002080B584B000AFF86026
:102B4000381D80E80600FB7012E0FB681878FB78FF
:102B50003A1D06CAFFF768FF03461A46FB681B7852
:102B60009A4202D0FB681B7808E0FB680133FB60E7
:102B7000FB681B78002BE8D1FB681B7818461037E0
:102B8000BD4680BD80B483B000AF03460A46FB71EA
:102B90001346BB71FB799AB2054B1A80BB799AB286
:102BA000034B5A8000BF0C37BD4680BC704700BF46
:102BB0008807002080B584B000AF0346FB718123F5
:102BC000FB73FB7B1846FFF7F7FDFB791846FFF711
:102BD000F3FD00BF1037BD4680BD000080B584B056
:102BE00000AF0346FB71FB79002B05D0AF23FB73CD
:102BF000084B01225A7104E0AE23FB73054B0022FF
:102C00005A71FB7B1846FFF7D7FD00BF1037BD4652
:102C100080BD00BF8807002080B500AF084B1B684F
:102C2000074A43F010031360032000F047F90F2018
:102C300000F008F8FFF750F90023184680BD00BFE8
:102C40000020024080B582B000AF7860124B1A6855
:102C5000124B1B7819464FF47A73B3FBF1F3B2FBB6
:102C6000F3F3184600F05FF90346002B01D001236F
:102C70000EE07B680F2B0AD8002279684FF0FF30F6
:102C800000F027F9064A7B681360002300E0012367
:102C900018460837BD4680BD90000020A0000020E7
:102CA0009C00002080B400AF054B1B781A46054BF2
:102CB0001B681344034A136000BFBD4680BC7047C5
:102CC000A00000209007002080B400AF024B1B68DA
:102CD0001846BD4680BC70479007002080B584B080
:102CE00000AF7860FFF7F0FFB8607B68FB60FB68BF
:102CF000B3F1FF3F05D00A4B1B781A46FB6813441B
:102D0000FB6000BFFFF7E0FF0246BB68D31AFA681A
:102D10009A42F7D800BF00BF1037BD4680BD00BF44
:102D2000A000002080B485B000AF78607B6803F01D
:102D30000703FB600C4BDB68BB60BA684FF6FF0310
:102D40001340BB60FB681A02BB68134343F0BF63C8
:102D500043F40033BB60044ABB68D36000BF143740
:102D6000BD4680BC704700BF00ED00E080B400AFFE
:102D7000044BDB681B0A03F007031846BD4680BC02
:102D8000704700BF00ED00E080B483B000AF0346A1
:102D9000FB7197F90730002B0BDBFB7903F01F0267
:102DA000064997F907305B09012000FA02F241F861
:102DB000232000BF0C37BD4680BC704700E100E017
:102DC00080B483B000AF03463960FB7197F90730D8
:102DD000002B0ADB3B68DAB20C4997F90730120185
:102DE000D2B20B4483F800230AE03B68DAB2084908
:102DF000FB7903F00F03043B1201D2B20B441A76A5
:102E000000BF0C37BD4680BC704700BF00E100E04A
:102E100000ED00E080B489B000AFF860B9607A607E
:102E2000FB6803F00703FB61FB69C3F10703042B95
:102E300028BF0423BB61FB690433062B02D9FB695D
:102E4000033B00E000237B614FF0FF32BB6902FAD5
:102E500003F3DA43BB681A407B699A404FF0FF31B5
:102E60007B6901FA03F3D9437B680B40134318468F
:102E70002437BD4680BC704780B582B000AF786013
:102E80007B68013BB3F1807F01D301230FE00A4A45
:102E90007B68013B53600F214FF0FF30FFF790FF3D
:102EA000054B00229A60044B07221A600023184643
:102EB0000837BD4680BD00BF10E000E080B582B09D
:102EC00000AF78607868FFF72DFF00BF0837BD4678
:102ED00080BD80B586B000AF0346B9607A60FB73F1
:102EE00000237B61FFF742FF78617A68B9687869EF
:102EF000FFF790FF024697F90F3011461846FFF78B
:102F00005FFF00BF1837BD4680BD80B582B000AFFF
:102F10000346FB7197F907301846FFF735FF00BFEE
:102F20000837BD4680BD80B582B000AF7860786854
:102F3000FFF7A2FF034618460837BD4680BD80B4A0
:102F400085B000AF78600023FB737B6893F8213075
:102F5000DBB2022B08D07B6804229A637B680022D4
:102F600083F82020012320E07B681B681A687B68B7
:102F70001B6822F00E021A607B681B681A687B6867
:102F80001B6822F001021A607B681A6C7B68DB6B9D
:102F9000012101FA02F25A607B68012283F82120A4
:102FA0007B68002283F82020FB7B18461437BD463F
:102FB00080BC704780B584B000AF78600023FB739D
:102FC0007B6893F82130DBB2022B05D07B680422AA
:102FD0009A630123FB7351E07B681B681A687B6866
:102FE0001B6822F00E021A607B681B681A687B68F7
:102FF0001B6822F001021A607B681B68224A934218
:1030000029D07B681B68214A934222D07B681B68C9
:103010001F4A93421AD07B681B681E4A934212D003
:103020007B681B681C4A93420AD07B681B681B4A5A
:10303000934202D14FF480130EE04FF080730BE007
:103040004FF4803308E04FF4805305E04FF4807371
:1030500002E0102300E00123114A53607B68012243
:1030600083F821207B68002283F820207B685B6B3B
:10307000002B03D07B685B6B78689847FB7B184616
:103080001037BD4680BD00BF080002401C00024052
:103090003000024044000240580002406C000240F0
:1030A0000000024080B48BB000AF7860396000232C
:1030B0007B6200233B6269E101227B6A02FA03F32F
:1030C000FB613B681B68FA691340BB61BA69FB6925
:1030D0009A4240F058813B685B689A4A93425ED0BE
:1030E000984A934275D8984A934258D0964A934248
:1030F0006FD8964A934252D0944A934269D8944AE0
:1031000093424CD0924A934263D8924A934246D01B
:10311000904A93425DD8122B2AD8122B59D801A27B
:1031200052F823F09F310008793100088B310008F4
:10313000CD310008D3310008D3310008D331000865
:10314000D3310008D3310008D3310008D33100084F
:10315000D3310008D3310008D3310008D33100083F
:10316000D3310008D33100088131000895310008BF
:10317000794A934213D02CE03B68DB683B6229E03C
:103180003B68DB6804333B6224E03B68DB68083360
:103190003B621FE03B68DB680C333B621AE03B6834
:1031A0009B68002B02D104233B6213E03B689B68C1
:1031B000012B05D108233B627B68FA691A6109E09B
:1031C00008233B627B68FA695A6103E000233B6293
:1031D00000E000BFBB69FF2B01D87B6801E07B6882
:1031E00004337B61BB69FF2B02D87B6A9B0002E042
:1031F0007B6A083B9B003B617B691A680F213B6936
:1032000001FA03F3DB431A40396A3B6901FA03F31D
:103210001A437B691A603B685B6803F08053002B9C
:1032200000F0B1804D4B9B694C4A43F00103936120
:103230004A4B9B6903F00103BB60BB68484A7B6A49
:103240009B08023352F82330FB607B6A03F00303D0
:103250009B000F2202FA03F3DB43FA681340FB6082
:103260007B68404A934213D07B683F4A93420DD01B
:103270007B683E4A934207D07B683D4A934201D126
:10328000032306E0042304E0022302E0012300E01C
:1032900000237A6A02F0030292009340FA68134313
:1032A000FB602F497B6A9B080233FA6841F82320B0
:1032B0003B685B6803F48013002B06D02D4B9A68A3
:1032C0002C49BB6913438B6006E02A4B9A68BB69A3
:1032D000DB43284913408B603B685B6803F40013B1
:1032E000002B06D0234BDA682249BB691343CB601D
:1032F00006E0204BDA68BB69DB431E491340CB6014
:103300003B685B6803F40033002B06D0194B5A6806
:103310001849BB6913434B6006E0164B5A68BB69FA
:10332000DB43144913404B603B685B6803F4803314
:10333000002B21D00F4B1A680E49BB6913430B6059
:1033400021E000BF00003210000031100000221008
:1033500000002110000012100000111000100240A7
:103360000000014000080140000C01400010014035
:1033700000140140000401400B4B1A68BB69DB4399
:10338000094913400B607B6A01337B623B681A6812
:103390007B6A22FA03F3002B7FF48EAE00BF00BFDE
:1033A0002C37BD4680BC70470004014080B483B018
:1033B00000AF78600B467B8013467B707B78002BD8
:1033C00003D07A887B681A6103E07B881A047B68E3
:1033D0001A6100BF0C37BD4680BC704780B485B011
:1033E00000AF78600B467B807B68DB68FB607A8887
:1033F000FB6813401A04FB68D9437B880B401A43CF
:103400007B681A6100BF1437BD4680BC704700005E
:1034100080B584B000AF78607B68002B01D10123B8
:103420002BE17B6893F83D30DBB2002B06D17B6843
:10343000002283F83C207868FEF7E6FB7B682422B4
:1034400083F83D207B681B681A687B681B6822F044
:1034500001021A607B681B681A687B681B6842F46B
:1034600000421A607B681B681A687B681B6822F43C
:1034700000421A6001F0F0FBF8607B685B68814AEB
:10348000934207D8FB68804A934294BF01230023EC
:10349000DBB206E0FB687D4A934294BF0123002320
:1034A000DBB2002B01D00123E7E0FB68784AA2FBE6
:1034B00003239B0CBB607B681B685B6823F03F01A8
:1034C0007B681B68BA680A435A607B681B681B6A82
:1034D00023F03F017B685B686A4A934202D8BB686D
:1034E000013309E0BB684FF4967202FB03F3694AAB
:1034F000A2FB03239B0901337A6812680B43136212
:103500007B681B68DB6923F44F4222F0FF027B6873
:103510005B685C498B4219D8FB68591E7B685B6805
:103520005B00B1FBF3F3591C40F6FC730B40002B1E
:103530000AD0FB68591E7B685B685B00B1FBF3F344
:103540000133C3F30B0351E004234FE07B689B6816
:10355000002B11D1FB68581E7B6859680B465B0035
:103560000B44B0FBF3F30133C3F30B03002B0CBF8D
:1035700001230023DBB212E0FB68581E7B68596808
:103580000B469B000B4499000B44B0FBF3F3013353
:10359000C3F30B03002B0CBF01230023DBB2002B72
:1035A00001D0012322E07B689B68002B0ED1FB68D1
:1035B000581E7B6859680B465B000B44B0FBF3F365
:1035C0000133C3F30B0343F400430FE0FB68581EC1
:1035D0007B6859680B469B000B4499000B44B0FB79
:1035E000F3F30133C3F30B0343F4404379680968F1
:1035F0001343CB617B681B681B6823F0C0017B68A9
:10360000DA697B681B6A1A437B681B680A431A6085
:103610007B681B689B6823F4034323F0FF037A68ED
:1036200011697A68D26811437A6812680B43936013
:103630007B681B68DB6823F0FF017B685A697B6845
:103640009B691A437B681B680A43DA607B681B68C6
:103650001A687B681B6842F001021A607B680022CE
:103660001A647B68202283F83D207B6800221A635D
:103670007B68002283F83E20002318461037BD46A1
:1036800080BD00BFA08601007F841E00FF083D00B2
:1036900083DE1B43D34D621080B588B002AFF86063
:1036A000084611461A4603467B810B463B8113466A
:1036B000FB80FFF709FB7861FB6893F83D30DBB2D4
:1036C000202B40F0D9807B690093192301226D499A
:1036D000F86800F0C1FC0346002B01D00223CCE0C7
:1036E000FB6893F83C30012B01D10223C5E0FB6855
:1036F000012283F83C20FB681B681B6803F0010370
:10370000012B07D0FB681B681A68FB681B6842F036
:1037100001021A60FB681B681A68FB681B6822F4C8
:1037200000621A60FB68212283F83D20FB6840227A
:1037300083F83E20FB6800221A64FB683A6A5A62EA
:10374000FB68BA8C5A85FB685B8D9AB2FB681A8558
:10375000FB684D4ADA62F8883A8979897B69019376
:10376000BB6A00930346F86800F0F8FA0346002BA2
:1037700052D0012381E07A69B96AF86800F086FDC9
:103780000346002B0DD0FB681B6C042B07D1FB6894
:103790001B681A68FB681B6842F400721A600123F8
:1037A0006BE0FB685B6A1A78FB681B681A61FB6850
:1037B0005B6A5A1CFB685A62FB681B8D013B9AB21C
:1037C000FB681A85FB685B8D9BB2013B9AB2FB6874
:1037D0005A85FB681B685B6903F00403042B1BD14B
:1037E000FB681B8D002B17D0FB685B6A1A78FB689F
:1037F0001B681A61FB685B6A5A1CFB685A62FB68AB
:103800001B8D013B9AB2FB681A85FB685B8D9BB2EE
:10381000013B9AB2FB685A85FB681B8D002BAAD12D
:103820007A69B96AF86800F079FD0346002B0DD07B
:10383000FB681B6C042B07D1FB681B681A68FB68CC
:103840001B6842F400721A60012316E0FB681B68D3
:103850001A68FB681B6842F400721A60FB68202239
:1038600083F83D20FB68002283F83E20FB6800229D
:1038700083F83C20002300E0022318461837BD4699
:1038800080BD00BF020010000000FFFF80B58CB0BB
:1038900002AFF860084611461A4603467B810B4684
:1038A0003B811346FB8000233B62FFF70DFA7862F1
:1038B000FB6893F83D30DBB2202B40F044827B6AFA
:1038C0000093192301228249F86800F0C5FB0346E2
:1038D000002B01D0022337E2FB6893F83C30012B28
:1038E00001D1022330E2FB68012283F83C20FB680F
:1038F0001B681B6803F00103012B07D0FB681B68E2
:103900001A68FB681B6842F001021A60FB681B68BA
:103910001A68FB681B6822F400621A60FB682222A6
:1039200083F83D20FB68402283F83E20FB6800229C
:103930001A64FB683A6B5A62FB68BA8E5A85FB6858
:103940005B8D9AB2FB681A85FB68624ADA62F88876
:103950003A8979897B6A0193BB6B00930346F868C7
:1039600000F092FA0346002B01D00123ECE1FB6842
:103970001B8D002B13D10023FB61FB681B685B6967
:10398000FB61FB681B689B69FB61FB69FB681B684B
:103990001A68FB681B6842F400721A60C0E1FB6899
:1039A0001B8D012B1ED1FB681B681A68FB681B6806
:1039B00022F480621A6072B600BF0023BB61FB680C
:1039C0001B685B69BB61FB681B689B69BB61BB696A
:1039D000FB681B681A68FB681B6842F400721A6077
:1039E00062B635E0FB681B8D022B1ED1FB681B689D
:1039F0001A68FB681B6842F400621A6072B600BF66
:103A000000237B61FB681B685B697B61FB681B684B
:103A10009B697B617B69FB681B681A68FB681B6894
:103A200022F480621A6062B612E0FB681B681A68B2
:103A3000FB681B6842F480621A6000233B61FB68EC
:103A40001B685B693B61FB681B689B693B613B6969
:103A500066E1FB681B8D032B00F21F81FB681B8D49
:103A6000012B23D17A6AB96BF86800F09FFC0346FA
:103A7000002B01D0012367E1FB681B681A69FB6812
:103A80005B6AD2B21A70FB685B6A5A1CFB685A62A6
:103A9000FB681B8D013B9AB2FB681A85FB685B8D46
:103AA0009BB2013B9AB2FB685A8539E1FB681B8DDA
:103AB000022B52D17B6A0093BB6B00220649F86847
:103AC00000F0CAFA0346002B08D001233CE100BFF6
:103AD000020010000000FFFF0400010072B600BFEA
:103AE000FB681B681A68FB681B6842F400721A6066
:103AF000FB681B681A69FB685B6AD2B21A70FB68C4
:103B00005B6A5A1CFB685A62FB681B8D013B9AB2C8
:103B1000FB681A85FB685B8D9BB2013B9AB2FB6820
:103B20005A8562B600BFFB681B681A69FB685B6A4E
:103B3000D2B21A70FB685B6A5A1CFB685A62FB6857
:103B40001B8D013B9AB2FB681A85FB685B8D9BB2AB
:103B5000013B9AB2FB685A85E2E07B6A0093BB6B3B
:103B600000227B49F86800F077FA0346002B01D069
:103B70000123E9E0FB681B681A68FB681B6822F4F4
:103B800080621A6072B600BFFB681B681A69FB6826
:103B90005B6AD2B21A70FB685B6A5A1CFB685A6295
:103BA000FB681B8D013B9AB2FB681A85FB685B8D35
:103BB0009BB2013B9AB2FB685A85664B1B68DB08D7
:103BC000654AA2FB03231A0A13469B001344DA003A
:103BD000D31A3B623B6A013B3B623B6A002B18D124
:103BE000FB6800221A63FB68202283F83D20FB68F3
:103BF000002283F83E20FB681B6C43F02002FB6828
:103C00001A6462B600BFFB68002283F83C200123DF
:103C10009AE0FB681B685B6903F00403042BD9D1AD
:103C2000FB681B681A68FB681B6842F400721A6024
:103C3000FB681B681A69FB685B6AD2B21A70FB6882
:103C40005B6A5A1CFB685A62FB681B8D013B9AB287
:103C5000FB681A85FB685B8D9BB2013B9AB2FB68DF
:103C60005A8562B600BFFB681B681A69FB685B6A0D
:103C7000D2B21A70FB685B6A5A1CFB685A62FB6816
:103C80001B8D013B9AB2FB681A85FB685B8D9BB26A
:103C9000013B9AB2FB685A8542E07A6AB96BF868D0
:103CA00000F084FB0346002B01D001234CE0FB68AD
:103CB0001B681A69FB685B6AD2B21A70FB685B6AA0
:103CC0005A1CFB685A62FB681B8D013B9AB2FB6869
:103CD0001A85FB685B8D9BB2013B9AB2FB685A85E3
:103CE000FB681B685B6903F00403042B18D1FB68B5
:103CF0001B681A69FB685B6AD2B21A70FB685B6A60
:103D00005A1CFB685A62FB681B8D013B9AB2FB6828
:103D10001A85FB685B8D9BB2013B9AB2FB685A85A2
:103D2000FB681B8D002B7FF494AEFB68202283F888
:103D30003D20FB68002283F83E20FB68002283F8C8
:103D40003C20002300E0022318462837BD4680BDF2
:103D5000040001009000002089B5F81480B588B0F7
:103D600002AFF860084611461A4603467B810B46AF
:103D70003B811346FB80FB681B681A68FB681B6865
:103D800042F480721A607B6A00933B6A00224FF013
:103D90000111F86800F060F90346002B0DD0FB68B4
:103DA0001B681B6803F48073B3F5807F03D1FB6845
:103DB0004FF400721A6403235FE07B89DBB21A467A
:103DC000FB681B6802F0FE021A617B6A3A6A2D49A1
:103DD000F86800F0BBF90346002B01D001234CE04A
:103DE00000237B61FB681B685B697B61FB681B6868
:103DF0009B697B617B697A6A396AF86800F046FAE8
:103E00000346002B0DD0FB681B6C042B07D1FB680D
:103E10001B681A68FB681B6842F400721A60012371
:103E20002BE0FB88012B05D13B89DAB2FB681B68CC
:103E30001A6121E03B891B0A9BB2DAB2FB681B685E
:103E40001A617A6A396AF86800F020FA0346002B92
:103E50000DD0FB681B6C042B07D1FB681B681A682C
:103E6000FB681B6842F400721A60012305E03B897D
:103E7000DAB2FB681B681A61002318461837BD4682
:103E800080BD00BF0200010080B588B002AFF860BD
:103E9000084611461A4603467B810B463B81134672
:103EA000FB80FB681B681A68FB681B6842F4806231
:103EB0001A60FB681B681A68FB681B6842F4807212
:103EC0001A607B6A00933B6A00224FF00111F86888
:103ED00000F0C2F80346002B0DD0FB681B681B687E
:103EE00003F48073B3F5807F03D1FB684FF4007255
:103EF0001A640323AAE07B89DBB21A46FB681B68BD
:103F000002F0FE021A617B6A3A6A5249F86800F0D0
:103F10001DF90346002B01D0012397E000237B61AC
:103F2000FB681B685B697B61FB681B689B697B6145
:103F30007B697A6A396AF86800F0A8F90346002BB1
:103F40000DD0FB681B6C042B07D1FB681B681A683B
:103F5000FB681B6842F400721A60012376E0FB885C
:103F6000012B05D13B89DAB2FB681B681A6121E09D
:103F70003B891B0A9BB2DAB2FB681B681A617A6A3A
:103F8000396AF86800F082F90346002B0DD0FB680F
:103F90001B6C042B07D1FB681B681A68FB681B6845
:103FA00042F400721A60012350E03B89DAB2FB68E8
:103FB0001B681A617A6A396AF86800F067F9034683
:103FC000002B0DD0FB681B6C042B07D1FB681B6812
:103FD0001A68FB681B6842F400721A60012335E01E
:103FE000FB681B681A68FB681B6842F480721A60E1
:103FF0007B6A00933B6A00224FF00111F86800F0E1
:104000002BF80346002B0DD0FB681B681B6803F4DC
:104010008073B3F5807F03D1FB684FF400721A649C
:10402000032313E07B89DBB243F00103DAB2FB68C0
:104030001B681A617B6A3A6A0649F86800F086F8DC
:104040000346002B01D0012300E000231846183757
:10405000BD4680BD0200010080B584B000AFF860AD
:10406000B9603B601346FB7148E03B68B3F1FF3F2A
:1040700044D0FEF729FE0246BB69D31A3A689A4239
:1040800002D33B68002B39D1BB681B0CDBB2012B80
:104090000DD1FB681B685B69DA43BB6813409BB2B8
:1040A000002B0CBF01230023DBB21A460CE0FB6897
:1040B0001B689B69DA43BB6813409BB2002B0CBFA3
:1040C00001230023DBB21A46FB799A4216D1FB6822
:1040D00000221A63FB68202283F83D20FB6800223F
:1040E00083F83E20FB681B6C43F02002FB681A64D7
:1040F000FB68002283F83C20012323E0BB681B0CF3
:10410000DBB2012B0DD1FB681B685B69DA43BB682E
:1041100013409BB2002B0CBF01230023DBB21A46D5
:104120000CE0FB681B689B69DA43BB6813409BB2D9
:10413000002B0CBF01230023DBB21A46FB799A4205
:1041400093D0002318461037BD4680BD80B584B09B
:1041500000AFF860B9607A603B6071E0FB681B6893
:104160005B6903F48063B3F5806F23D1FB681B6840
:104170001A68FB681B6842F400721A60FB681B68CF
:104180006FF480625A61FB6800221A63FB68202288
:1041900083F83D20FB68002283F83E20FB681B6CFF
:1041A00043F00402FB681A64FB68002283F83C2099
:1041B000012367E07B68B3F1FF3F41D0FEF784FD48
:1041C00002463B68D31A7A689A4202D37B68002B76
:1041D00036D1BB681B0CDBB2012B0CD1FB681B6812
:1041E0005B69DA43BB6813409BB2002B14BF012309
:1041F0000023DBB20BE0FB681B689B69DA43BB68FA
:1042000013409BB2002B14BF01230023DBB2002B11
:1042100016D0FB6800221A63FB68202283F83D2039
:10422000FB68002283F83E20FB681B6C43F02002F1
:10423000FB681A64FB68002283F83C20012321E01C
:10424000BB681B0CDBB2012B0CD1FB681B685B69E4
:10425000DA43BB6813409BB2002B14BF0123002339
:10426000DBB20BE0FB681B689B69DA43BB68134059
:104270009BB2002B14BF01230023DBB2002B7FF481
:104280006DAF002318461037BD4680BD80B584B0A1
:1042900000AFF860B9607A6034E0F86800F0E3F8E5
:1042A0000346002B01D0012334E0BB68B3F1FF3F8C
:1042B00028D0FEF709FD02467B68D31ABA689A42F5
:1042C00002D3BB68002B1DD1FB681B685B6903F040
:1042D0008003802B16D0FB6800221A63FB68202223
:1042E00083F83D20FB68002283F83E20FB681B6CAE
:1042F00043F02002FB681A64FB68002283F83C202C
:10430000012307E0FB681B685B6903F08003802BD7
:10431000C3D1002318461037BD4680BD80B584B098
:1043200000AFF860B9607A6034E0F86800F09BF89C
:104330000346002B01D0012334E0BB68B3F1FF3FFB
:1043400028D0FEF7C1FC02467B68D31ABA689A42AD
:1043500002D3BB68002B1DD1FB681B685B6903F0AF
:104360000403042B16D0FB6800221A63FB6820228A
:1043700083F83D20FB68002283F83E20FB681B6C1D
:1043800043F02002FB681A64FB68002283F83C209B
:10439000012307E0FB681B685B6903F00403042B3F
:1043A000C3D1002318461037BD4680BD80B584B008
:1043B00000AFF860B9607A6049E0FB681B685B6930
:1043C00003F01003102B19D1FB681B686FF010026B
:1043D0005A61FB6800221A63FB68202283F83D20A3
:1043E000FB68002283F83E20FB681A6CFB681A64A5
:1043F000FB68002283F83C20012330E0FEF764FCD8
:1044000002467B68D31ABA689A4202D3BB68002B73
:104410001DD1FB681B685B6903F04003402B16D07D
:10442000FB6800221A63FB68202283F83D20FB68AA
:10443000002283F83E20FB681B6C43F02002FB68DF
:104440001A64FB68002283F83C20012307E0FB6824
:104450001B685B6903F04003402BAED10023184674
:104460001037BD4680BD80B483B000AF78607B68F4
:104470001B685B6903F48063B3F5806F1BD17B68B5
:104480001B686FF480625A617B6800221A637B6844
:10449000202283F83D207B68002283F83E207B6841
:1044A0001B6C43F004027B681A647B68002283F86B
:1044B0003C20012300E0002318460C37BD4680BC99
:1044C0007047000080B586B000AF78607B68002B35
:1044D00001D1012372E27B681B6803F00103002B0A
:1044E00000F08780924B5B6803F00C03042B0CD028
:1044F0008F4B5B6803F00C03082B12D18C4B5B686D
:1045000003F48033B3F5803F0BD1894B1B6803F470
:104510000033002B6CD07B685B68002B68D10123D3
:104520004CE27B685B68B3F5803F06D1804B1B682B
:104530007F4A43F4803313602EE07B685B68002B76
:104540000CD17B4B1B687A4A23F480331360784B81
:104550001B68774A23F4802313601DE07B685B6847
:10456000B3F5A02F0CD1724B1B68714A43F4802322
:1045700013606F4B1B686E4A43F4803313600BE08B
:104580006B4B1B686A4A23F480331360684B1B68CB
:10459000674A23F4802313607B685B68002B13D089
:1045A000FEF792FB386108E0FEF78EFB02463B699E
:1045B000D31A642B01D9032300E25D4B1B6803F47B
:1045C0000033002BF0D014E0FEF77EFB386108E0EA
:1045D000FEF77AFB02463B69D31A642B01D9032309
:1045E000ECE1534B1B6803F40033002BF0D100E0E7
:1045F00000BF7B681B6803F00203002B63D04C4BA9
:104600005B6803F00C03002B0BD0494B5B6803F095
:104610000C03082B1CD1464B5B6803F48033002B42
:1046200016D1434B1B6803F00203002B05D07B68B7
:104630001B69012B01D00123C0E13D4B1B6823F016
:10464000F8027B685B69DB00394913430B603AE091
:104650007B681B69002B20D0364B01221A60FEF7C5
:1046600033FB386108E0FEF72FFB02463B69D31AA3
:10467000022B01D90323A1E12D4B1B6803F0020398
:10468000002BF0D02A4B1B6823F0F8027B685B6993
:10469000DB00274913430B6015E0264B00221A600C
:1046A000FEF712FB386108E0FEF70EFB02463B699D
:1046B000D31A022B01D9032380E11D4B1B6803F0A1
:1046C0000203002BF0D17B681B6803F00803002B6A
:1046D0003AD07B689B69002B19D0174B01221A60D6
:1046E000FEF7F2FA386108E0FEF7EEFA02463B699F
:1046F000D31A022B01D9032360E10D4B5B6A03F04F
:104700000203002BF0D0012000F0CEFA1CE00A4B8F
:1047100000221A60FEF7D8FA38610FE0FEF7D4FAEB
:1047200002463B69D31A022B08D9032346E100BF96
:10473000001002400000424280044242924B5B6AF9
:1047400003F00203002BE9D17B681B6803F004032C
:10475000002B00F0A6800023FB758B4BDB6903F078
:104760008053002B0DD1884BDB69874A43F080537F
:10477000D361854BDB6903F08053BB60BB680123C9
:10478000FB75824B1B6803F48073002B18D17F4BA1
:104790001B687E4A43F480731360FEF795FA386114
:1047A00008E0FEF791FA02463B69D31A642B01D95F
:1047B000032303E1754B1B6803F48073002BF0D0D7
:1047C0007B68DB68012B06D16F4B1B6A6E4A43F096
:1047D000010313622DE07B68DB68002B0CD16A4B70
:1047E0001B6A694A23F001031362674B1B6A664A1E
:1047F00023F0040313621CE07B68DB68052B0CD1FB
:10480000614B1B6A604A43F0040313625E4B1B6AF0
:104810005D4A43F0010313620BE05B4B1B6A5A4A8B
:1048200023F001031362584B1B6A574A23F0040319
:1048300013627B68DB68002B15D0FEF745FA386100
:104840000AE0FEF741FA02463B69D31A41F2883288
:10485000934201D90323B1E04B4B1B6A03F00203DF
:10486000002BEED014E0FEF72FFA38610AE0FEF7D5
:104870002BFA02463B69D31A41F28832934201D99E
:1048800003239BE0404B1B6A03F00203002BEED195
:10489000FB7D012B05D13C4BDB693B4A23F0805368
:1048A000D3617B68DB69002B00F08780364B5B6847
:1048B00003F00C03082B61D07B68DB69022B46D127
:1048C000334B00221A60FEF7FFF9386108E0FEF76B
:1048D000FBF902463B69D31A022B01D903236DE091
:1048E000294B1B6803F00073002BF0D17B681B6A17
:1048F000B3F5803F08D1244B5B6823F400327B681A
:104900009B68214913434B601F4B5B6823F474126F
:104910007B68196A7B685B6A0B431B4913434B60D6
:104920001B4B01221A60FEF7CFF9386108E0FEF751
:10493000CBF902463B69D31A022B01D903233DE090
:10494000114B1B6803F00073002BF0D035E0104BC7
:1049500000221A60FEF7B8F9386108E0FEF7B4F9F2
:1049600002463B69D31A022B01D9032326E0064BEA
:104970001B6803F00073002BF0D11EE07B68DB693D
:10498000012B07D1012319E0001002400070004004
:10499000600042420B4B5B68FB60FB6803F48032B3
:1049A0007B681B6A9A4206D1FB6803F470127B682D
:1049B0005B6A9A4201D0012300E0002318461837B1
:1049C000BD4680BD0010024080B584B000AF786065
:1049D00039607B68002B01D10123D0E06A4B1B6852
:1049E00003F007033A689A4210D9674B1B6823F01B
:1049F000070265493B6813430B60634B1B6803F078
:104A000007033A689A4201D00123B8E07B681B682B
:104A100003F00203002B20D07B681B6803F0040323
:104A2000002B05D0594B5B68584A43F4E063536050
:104A30007B681B6803F00803002B05D0534B5B68B1
:104A4000524A43F460535360504B5B6823F0F002CA
:104A50007B689B684D4913434B607B681B6803F080
:104A60000103002B40D07B685B68012B07D1474BCB
:104A70001B6803F40033002B15D101237FE07B6812
:104A80005B68022B07D1414B1B6803F00073002BBE
:104A900009D1012373E03D4B1B6803F00203002B97
:104AA00001D101236BE0394B5B6823F003027B6883
:104AB0005B68364913434B60FEF706F9F8600AE07D
:104AC000FEF702F90246FB68D31A41F2883293429C
:104AD00001D9032353E02D4B5B6803F00C027B6884
:104AE0005B689B009A42EBD1274B1B6803F00703DE
:104AF0003A689A4210D2244B1B6823F007022249DD
:104B00003B6813430B60204B1B6803F007033A68B4
:104B10009A4201D0012332E07B681B6803F0040352
:104B2000002B08D0194B5B6823F4E0627B68DB68DC
:104B3000164913434B607B681B6803F00803002B86
:104B400009D0124B5B6823F460527B681B69DB0061
:104B50000E4913434B6000F021F802460B4B5B6893
:104B60001B0903F00F030A49CB5C22FA03F3094A3D
:104B70001360094B1B681846FEF764F800231846BB
:104B80001037BD4680BD00BF00200240001002402B
:104B900034780008900000209C00002080B487B08A
:104BA00000AF0023FB600023BB6000237B61002378
:104BB0007B6000233B611E4B5B68FB60FB6803F07E
:104BC0000C03042B02D0082B03D027E0194B3B61C8
:104BD00027E0FB689B0C03F00F03174AD35C7B6054
:104BE000FB6803F48033002B10D0114B5B685B0C27
:104BF00003F00103114AD35CBB607B680D4A03FBE1
:104C000002F2BB68B2FBF3F37B6104E07B680C4A01
:104C100002FB03F37B617B693B6102E0054B3B6177
:104C200000BF3B6918461C37BD4680BC704700BFBB
:104C30000010024000127A00B87F0008C87F000808
:104C400000093D0080B400AF024B1B681846BD460A
:104C500080BC70479000002080B500AFFFF7F2FFE6
:104C60000246054B5B681B0A03F007030349CB5C54
:104C700022FA03F3184680BD001002404478000871
:104C800080B500AFFFF7DEFF0246054B5B68DB0A2D
:104C900003F007030349CB5C22FA03F3184680BDF7
:104CA000001002404478000880B485B000AF7860FE
:104CB0000A4B1B680A4AA2FB03235B0A7A6802FBC1
:104CC00003F3FB6000BFFB685A1EFA60002BF9D1AA
:104CD00000BF00BF1437BD4680BC70479000002065
:104CE000D34D621080B582B000AF78607B68002B36
:104CF00001D1012341E07B6893F83D30DBB2002B0A
:104D000006D17B68002283F83C207868FDF7F2FB2F
:104D10007B68022283F83D207B681A687B68043335
:104D20001946104600F0A8FB7B68012283F8462054
:104D30007B68012283F83E207B68012283F83F20B4
:104D40007B68012283F840207B68012283F84120A0
:104D50007B68012283F842207B68012283F843208C
:104D60007B68012283F844207B68012283F8452078
:104D70007B68012283F83D20002318460837BD4692
:104D800080BD80B582B000AF78607B68002B01D118
:104D9000012341E07B6893F83D30DBB2002B06D164
:104DA0007B68002283F83C20786800F039F87B6843
:104DB000022283F83D207B681A687B680433194619
:104DC000104600F059FB7B68012283F846207B687F
:104DD000012283F83E207B68012283F83F207B6814
:104DE000012283F840207B68012283F841207B6800
:104DF000012283F842207B68012283F843207B68EC
:104E0000012283F844207B68012283F845207B68D7
:104E1000012283F83D20002318460837BD4680BD97
:104E200080B483B000AF786000BF0C37BD4680BC53
:104E3000704780B582B000AF78607B68002B01D1ED
:104E4000012341E07B6893F83D30DBB2002B06D1B3
:104E50007B68002283F83C20786800F039F87B6892
:104E6000022283F83D207B681A687B680433194668
:104E7000104600F001FB7B68012283F846207B6826
:104E8000012283F83E207B68012283F83F207B6863
:104E9000012283F840207B68012283F841207B684F
:104EA000012283F842207B68012283F843207B683B
:104EB000012283F844207B68012283F845207B6827
:104EC000012283F83D20002318460837BD4680BDE7
:104ED00080B483B000AF786000BF0C37BD4680BCA3
:104EE0007047000080B584B000AF786039603B68DF
:104EF000002B09D17B6893F83E30DBB2012B14BF45
:104F000001230023DBB222E03B68042B09D17B683C
:104F100093F83F30DBB2012B14BF01230023DBB237
:104F200015E03B68082B09D17B6893F84030DBB271
:104F3000012B14BF01230023DBB208E07B6893F848
:104F40004130DBB2012B14BF01230023DBB2002B65
:104F500001D001235EE03B68002B04D17B68022274
:104F600083F83E2013E03B68042B04D17B680222C7
:104F700083F83F200BE03B68082B04D17B680222BA
:104F800083F8402003E07B68022283F841207B689D
:104F90001B6801223968184600F07FFD7B681B689A
:104FA0001E4A934207D17B681B685A6C7B681B685A
:104FB00042F400425A647B681B68184A93420ED040
:104FC0007B681B68B3F1804F09D07B681B68144A6B
:104FD000934204D07B681B68124A934211D17B68CC
:104FE0001B689B6803F00703FB60FB68062B10D06F
:104FF0007B681B681A687B681B6842F001021A60B4
:1050000007E07B681B681A687B681B6842F0010236
:105010001A60002318461037BD4680BD002C0140A1
:10502000000400400008004080B586B000AFF86082
:10503000B9607A600023FB75FB6893F83C30012B64
:1050400001D1022348E0FB68012283F83C207B6801
:105050000C2B39D801A252F823F000BF9150000860
:10506000C9500008C9500008C95000089F500008E6
:10507000C9500008C9500008C9500008AD500008C8
:10508000C9500008C9500008C9500008BB500008AA
:10509000FB681B68B968184600F050FA17E0FB6817
:1050A0001B68B968184600F0AFFA10E0FB681B688F
:1050B000B968184600F012FB09E0FB681B68B96884
:1050C000184600F075FB02E00123FB7500BFFB688A
:1050D000002283F83C20FB7D18461837BD4680BD72
:1050E00080B586B000AFF860B9607A600023FB75C8
:1050F000FB6893F83C30012B01D10223AEE0FB6842
:10510000012283F83C207B680C2B00F29F8001A2D7
:1051100052F823F0495100084D5200084D52000842
:105120004D520008895100084D5200084D520008A8
:105130004D520008CB5100084D5200084D52000856
:105140004D5200080B520008FB681B68B9681846EE
:1051500000F0F4F9FB681B689A69FB681B6842F071
:1051600008029A61FB681B689A69FB681B6822F059
:1051700004029A61FB681B689969BB681A69FB683D
:105180001B680A439A6164E0FB681B68B9681846AB
:1051900000F03AFAFB681B689A69FB681B6842F4E6
:1051A00000629A61FB681B689A69FB681B6822F4BD
:1051B00080629A61FB681B689969BB681B691A0267
:1051C000FB681B680A439A6143E0FB681B68B96887
:1051D000184600F083FAFB681B68DA69FB681B68F5
:1051E00042F00802DA61FB681B68DA69FB681B6839
:1051F00022F00402DA61FB681B68D969BB681A698E
:10520000FB681B680A43DA6123E0FB681B68B96826
:10521000184600F0CDFAFB681B68DA69FB681B686A
:1052200042F40062DA61FB681B68DA69FB681B689C
:1052300022F48062DA61FB681B68D969BB681B696C
:105240001A02FB681B680A43DA6102E00123FB755E
:1052500000BFFB68002283F83C20FB7D184618370E
:10526000BD4680BD80B584B000AF78603960002352
:10527000FB737B6893F83C30012B01D10223B4E02F
:105280007B68012283F83C207B68022283F83D2062
:105290007B681B689B68BB60BB6823F07703BB60BF
:1052A000BB6823F47F43BB607B681B68BA689A6065
:1052B0003B681B68B3F5005F3ED0B3F5005F00F2BA
:1052C0008780B3F5805F00F08680B3F5805F7FD87C
:1052D000702B1AD0702B7BD8602B50D0602B77D8D6
:1052E000502B3CD0502B73D8402B58D0402B6FD82C
:1052F000302B64D0302B6BD8202B60D0202B67D87C
:10530000002B5CD0102B5AD062E07B6818683B6899
:1053100099683B685A683B68DB6800F09FFB7B68D4
:105320001B689B68BB60BB6843F07703BB607B680E
:105330001B68BA689A604FE07B6818683B68996898
:105340003B685A683B68DB6800F088FB7B681B6839
:105350009A687B681B6842F480429A603CE07B68F4
:1053600018683B6859683B68DB681A4600F0FFFA2A
:105370007B681B685021184600F056FB2CE07B68C8
:1053800018683B6859683B68DB681A4600F01DFBEB
:105390007B681B686021184600F046FB1CE07B68B8
:1053A00018683B6859683B68DB681A4600F0DFFA0A
:1053B0007B681B684021184600F036FB0CE07B68D8
:1053C0001A683B681B681946104600F02DFB03E085
:1053D0000123FB7300E000BF7B68012283F83D20BE
:1053E0007B68002283F83C20FB7B18461037BD46C3
:1053F00080BD80B582B000AF786039607B6893F87B
:105400003C30012B01D1022331E07B68012283F87B
:105410003C207B68022283F83D203968786800F0E0
:1054200015FA0346002B09D07B68012283F83D2042
:105430007B68002283F83C20012318E07B681B680E
:10544000DA687B681B6822F04002DA607B681B68C0
:10545000DA687B681B6822F48042DA607B6801228C
:1054600083F83D207B68002283F83C200023184607
:105470000837BD4680BD000080B485B000AF7860BD
:1054800039607B681B68FB607B68294A93420BD0BC
:105490007B68B3F1804F07D07B68264A934203D0E4
:1054A0007B68254A934208D1FB6823F07003FB60B8
:1054B0003B685B68FA681343FB607B681C4A934255
:1054C0000BD07B68B3F1804F07D07B68194A9342B9
:1054D00003D07B68184A934208D1FB6823F44073D9
:1054E000FB603B68DB68FA681343FB60FB6823F0F2
:1054F00080023B685B691343FB607B68FA681A6053
:105500003B689A687B68DA623B681A687B689A62D3
:105510007B68074A934203D13B681A697B681A6328
:105520007B6801225A6100BF1437BD4680BC7047BA
:10553000002C0140000400400008004080B487B007
:1055400000AF786039607B681B6A7B617B681B6A8F
:1055500023F001027B681A627B685B683B617B68B1
:105560009B69FB60FB6823F07003FB60FB6823F022
:105570000303FB603B681B68FA681343FB607B69AD
:1055800023F002037B613B689B687A6913437B616C
:105590007B681C4A93420CD17B6923F008037B6132
:1055A0003B68DB687A6913437B617B6923F0040302
:1055B0007B617B68134A934211D13B6923F480736A
:1055C0003B613B6923F400733B613B685B693A696B
:1055D00013433B613B689B693A6913433B617B68BA
:1055E0003A695A607B68FA689A613B685A687B68D6
:1055F0005A637B687A691A6200BF1C37BD4680BC5B
:10560000704700BF002C014080B487B000AF7860C5
:1056100039607B681B6A7B617B681B6A23F0100220
:105620007B681A627B685B683B617B689B69FB6097
:10563000FB6823F4E043FB60FB6823F44073FB60EA
:105640003B681B681B02FA681343FB607B6923F00D
:1056500020037B613B689B681B017A6913437B6174
:105660007B681D4A93420DD17B6923F080037B61E7
:105670003B68DB681B017A6913437B617B6923F01C
:1056800040037B617B68144A934213D13B6923F446
:1056900080633B613B6923F400633B613B685B696A
:1056A0009B003A6913433B613B689B699B003A69E5
:1056B00013433B617B683A695A607B68FA689A6178
:1056C0003B685A687B689A637B687A691A6200BF94
:1056D0001C37BD4680BC7047002C014080B487B0A9
:1056E00000AF786039607B681B6A7B617B681B6AEE
:1056F00023F480727B681A627B685B683B617B681D
:10570000DB69FB60FB6823F07003FB60FB6823F040
:105710000303FB603B681B68FA681343FB607B690B
:1057200023F400737B613B689B681B027A69134317
:105730007B617B681D4A93420DD17B6923F4006332
:105740007B613B68DB681B027A6913437B617B6981
:1057500023F480637B617B68144A934213D13B69D5
:1057600023F480533B613B6923F400533B613B6866
:105770005B691B013A6913433B613B689B691B01F1
:105780003A6913433B617B683A695A607B68FA68FF
:10579000DA613B685A687B68DA637B687A691A6207
:1057A00000BF1C37BD4680BC704700BF002C0140C5
:1057B00080B487B000AF786039607B681B6A3B615A
:1057C0007B681B6A23F480527B681A627B685B6883
:1057D0007B617B68DB69FB60FB6823F4E043FB6073
:1057E000FB6823F44073FB603B681B681B02FA688C
:1057F0001343FB603B6923F400533B613B689B68A8
:105800001B033A6913433B617B680F4A934209D1FA
:105810007B6923F480437B613B685B699B017A6908
:1058200013437B617B687A695A607B68FA68DA6146
:105830003B685A687B681A647B683A691A6200BFE1
:105840001C37BD4680BC7047002C014080B586B037
:1058500000AF786039600023FB757B681B689B682C
:105860003B613B6923F070033B613B685B683A69CD
:1058700013433B613B6923F007033B613B681B68B3
:105880003A6913433B617B681B683A699A603B68DD
:105890005B68702B1AD0702B60D8602B54D0602BB3
:1058A0005CD8502B46D0502B58D8402B19D0402BC9
:1058B00054D8302B55D0302B50D8202B51D0202B02
:1058C0004CD8002B4DD0102B4BD047E07B6818688C
:1058D0003B68D9683B689A683B681B6900F0BEF872
:1058E00040E03B681B68052B01D101233BE07B684E
:1058F0001B681B6AFB607B681B681A6A7B681B68F5
:1059000022F001021A627B681B689B69BB60BB685E
:1059100023F0F003BB603B681B691B01BA681343AB
:10592000BB607B681B68BA689A617B681B68FA6811
:105930001A6217E07B6818683B6899683B681B69C6
:105940001A4600F014F80DE07B6818683B68996807
:105950003B681B691A4600F038F803E00123FB7529
:1059600000E000BFFB7D18461837BD4680BD80B4FF
:1059700087B000AFF860B9607A60FB681B6A7B6132
:10598000FB681B6A23F00102FB681A62FB689B69D3
:105990003B613B6923F0F0033B617B681B013A6983
:1059A00013433B617B6923F00A037B617A69BB681F
:1059B00013437B61FB683A699A61FB687A691A62F2
:1059C00000BF1C37BD4680BC704780B487B000AFB5
:1059D000F860B9607A60FB681B6A7B61FB681B6AD0
:1059E00023F01002FB681A62FB689B693B613B690C
:1059F00023F470433B617B681B033A6913433B61AB
:105A00007B6923F0A0037B61BB681B017A691343A8
:105A10007B61FB683A699A61FB687A691A6200BF28
:105A20001C37BD4680BC704780B485B000AF78603D
:105A300039607B689B68FB60FB6823F07003FB6048
:105A40003A68FB68134343F00703FB607B68FA681E
:105A50009A6000BF1437BD4680BC704780B487B0E1
:105A600000AFF860B9607A603B60FB689B687B615F
:105A70007B6923F47F437B613B681A027B681A438E
:105A8000BB6813437A6913437B61FB687A699A6048
:105A900000BF1C37BD4680BC704780B487B000AFE4
:105AA000F860B9607A60BB6803F01F03012202FA54
:105AB00003F37B61FB681A6A7B69DB431A40FB686E
:105AC0001A62FB681A6ABB6803F01F03796801FA5F
:105AD00003F31A43FB681A6200BF1C37BD4680BC43
